:1010000000000420751300005D1300005F13000052
:10101000611300006313000065130000000000006E
:101020000000000000000000000000006713000046
:1010300069130000000000006B1300006D13000036
:10104000998900001DCF0300A98900006F130000DB
:101050006F1300006F130000B58600006F130000CF
:101060006F1300006F1300006F1300006F13000078
:101070006F130000458A00006F1300006F1300001B
:101080006F130000B14F00006F1300006F130000DA
:101090006F1300006F1300006F1300006F13000048
:1010A0006F1300006F130000798C00006F130000B5
:1010B0006F1300006F13000000000000000000002C
:1010C0006F1300006F1300006F1300006F13000018
:1010D00049FD03006F1300006F130000859C0000A2
:1010E0006F1300006F1300006F130000000000007A
:1010F000000000006F130000000000006F130000EC
:1011000000000000000000000000000000000000DF
:1011100000000000000000000000000000000000CF
:1011200000000000000000000000000000000000BF
:1011300000000000000000000000000000000000AF
:10114000000000000000000000000000000000009F
:10115000000000000000000000000000000000008F
:10116000000000000000000000000000000000007F
:10117000000000000000000000000000000000006F
:10118000000000000000000000000000000000005F
:10119000000000000000000000000000000000004F
:1011A000000000000000000000000000000000003F
:1011B000000000000000000000000000000000002F
:1011C000000000000000000000000000000000001F
:1011D000000000000000000000000000000000000F
:1011E00000000000000000000000000000000000FF
:1011F00000000000000000000000000000000000EF
:10120000354936480A1A02D0072291438D4634499F
:1012100034480A1A06D00722914381F30988022232
:1012200082F3148830483149314A00F044F831489B
:101230003149324A00F03FF831483249324A00F031
:101240003AF832483249334A00F035F832483349E7
:10125000334A00F030F833483349344A00F02BF871
:1012600033483449344A00F026F8344834490022DF
:1012700000F02CF833483449002200F027F83348B6
:101280003349091A082902DB002202604160314A11
:1012900090471F481F49884205D00268043003B4B4
:1012A000904703BCF7E700208646EC46002000216B
:1012B000294A9047FEE7884207D0521A05D00378A2
:1012C00001300B700131013AF9D17047884202D0E8
:1012D00002700130FAE770470000042000E00320AC
:1012E00000000420000004201C61040060010020B4
:1012F00064040020D0130000D0130000EE020400AC
:101300001C61040060010020600100206C060400E4
:101310006C0604006C0604006C0604006C060400F5
:101320006C0604006C0604006C0604001B610400DB
:10133000206404006404002064040020640400208D
:101340007EA7002080A7002080A7002080A7002083
:1013500080C700209D13000035A20000FEE7FEE7D5
:10136000FEE7FEE7FEE7FEE7FEE7FEE7FEE7FEE755
:1013700000F002B8FFF7FCBF0F484FF007018843A9
:1013800085460E4880470E48016841F470010160AF
:10139000BFF34F8FBFF36F8FFFF732BF09480A4982
:1013A0000A4A884207D0521A05D0037801300B70E0
:1013B0000131013AF9D170470000042005A3000073
:1013C00088ED00E014050400080000206001002002
:1013D0007047000007B5044B0093044A802300F0D7
:1013E00032F803B05DF804FBF1130000650400203F
:1013F0002DE9F84388461446B2B10F4B0F4E032532
:10140000002743F00109224608EB0701002008F0FD
:101410009FFE0744241A48B933782BB14FF47A4021
:10142000C847013D02D13570BDE8F8830123337010
:10143000002CE8D1F8E700BF700604006404002027
:10144000704708F0B9BEF0B595B008460C46164690
:101450001D4606F0FBFB1A9A0D920023082205A9EF
:1014600020460A938DF82C300C93CDE9086506F0E0
:101470000AFC079B0293069B039301238DF811300E
:101480009DF8143003F00302012A1DD1BDF8142089
:10149000059DC3F3C203C2F383168DF81030B2006A
:1014A00008230EA9204606F0EEFBC5F3952508ABF0
:1014B0000093324602AB0EA9284600F02DFF2046CD
:1014C00006F0C8FB15B0F0BD022AF8D1BDF81650E1
:1014D000C3F3C203C5F389158DF810300827082D12
:1014E0002E4628BF08263B4632460EA9204606F067
:1014F000CAFBAD1B08AB02AA31460EA8374400F068
:101500006FFF002DEBD1DAE708B5FFF79AFF04482B
:10151000042100F061FE034B01225A7108BD00BF97
:10152000F00204006001002000230428CB604B601F
:1015300098BF044B044A98BF53F820308A600B6070
:10154000704700BFBC0A0400980A0400CB68002260
:101550005A717047C368DB6800225A717047CB68C4
:1015600001225A717047C368DB6801225A717047C3
:101570000D4A8A6070B50D4A0D4C0023121BCB60DA
:101580004B600B6012091D469A4207D0E668367917
:10159000FF2E05D0854202D1A3680B6070BD0135D6
:1015A00001331034F0E700BFD00A04001003040038
:1015B000F00204002DE9F74F154D164C9846641BB8
:1015C00052F8043C06468946174624094FF0000BA2
:1015D0005C4507D1104A0221304603B0BDE8F04F08
:1015E00004F07ABBA968019318460DF0E7FDAA46FE
:1015F000103518B1019B0BF1010BE9E73B464A4658
:1016000051463046C44603B0BDE8F04F604700BFC6
:10161000F00204001003040094060400014BFFF7DD
:10162000C9BF00BF491C0000014BFFF7C3BF00BF8B
:101630004D150000014BFFF7BDBF00BF5F15000057
:10164000014BFFF7B7BF00BF751A0000037813F016
:10165000040216D003F00303012B03D0022B09D0A0
:10166000012070470A6800880232C0F383100244E8
:101670000A60F5E70B684288023303EB92130B60B4
:10168000EEE71046704700002DE9F04F044685B0A4
:10169000861C00200F46154603F040FB45480168B4
:1016A0003960D0E90132134401335B1A824600F2FB
:1016B0001C4700F5836900F21448B3421BD3002095
:1016C000002D72D004F00F039B0143F0050363F378
:1016D0000F00DAF80020DAF808301340033316441C
:1016E0004AF823000020CAF8006003F019FB01202B
:1016F00005B0BDE8F08F0121384603F06DFE484685
:1017000003F085FE404603F082FEDAF80400DAF8C2
:1017100008B0009000EA0B0003300AEB8000694635
:10172000FFF794FF009B50BB0BEA03020AEB820217
:1017300003F1020CD2680192013303EA0B0B0AEBAE
:101740008B0B02F00302012ADBF80C10CDF800C06D
:1017500023D0022A16D08346404603F05BFE10B128
:10176000009BCAF804305946384603F035FEDAE9E2
:1017700001231344DAF8002001339B1A9DE70BEA9A
:101780000300C9E7BDF80630C3F3891303334FEAFA
:10179000114B0CEB93030093DEE7BDF80430C3F369
:1017A00083134FEA114B6344F5E7A40544F00600A8
:1017B0008FE700BF80060020012907B5034604D04B
:1017C0008168D1F85413890707D5002211461846BD
:1017D00003B05DF804EB05F041BC53680193054B81
:1017E00000931368044A022104F076FA03B05DF80E
:1017F00004FB00BFB4060400AA0604002DE9F34769
:101800008368D3F85433C3F340059B07074606D5D6
:101810000022114602B0BDE8F04705F01FBC144E8F
:10182000144CDFF85880DFF85890DFF858A0A41B5C
:101830002409A54202D102B0BDE8F087F268B3687E
:101840001179FF2907D10C4A0821384604F044FADF
:1018500001351036EDE75279002A14BF42464A4658
:10186000CDE9002138465246082104F035FAEFE769
:10187000F002040010030400C906040075310400DE
:10188000CC310400E806040030B50A4B0A4A0B4983
:10189000D21AD20800239A4201D1052006E031F87D
:1018A00023500468A54202D10360002030BD0133FB
:1018B000F1E700BFBC030400DC0404002C0000209E
:1018C0008368D3F854339B0703D50022114605F0F3
:1018D000C5BB024A022104F0FFB900BF090704009A
:1018E0008368D3F854339B0703D50022114605F0D3
:1018F000B5BB024A022104F0EFB900BF090704009A
:101900002DE9F84F224B2348FF229A600022C3F8AA
:101910001824C3E90022C3F8142483F8202406F015
:101920004EF9814688B91C481C4E1D4CDFF87CA03E
:1019300006F0C5FBA41BE4084D46A54208D10023D0
:10194000184A19481946A3421BD14846BDE8F88FEA
:101950004FF00008474606EBC50BBD420AD056F8CB
:101960003710DBF8000014220DF044FB0028C8BF3C
:1019700008F101080137BC42EFD12AF82580013572
:10198000DBE720F8231042F8041B0133DBE700BF3C
:1019900080060020DC0404008C0A0400BC03040060
:1019A000DC040400BC0000202E0000202C000020DD
:1019B00007B5019031B9019A064B53F8320003B0D4
:1019C0005DF804FB01A8FFF75FFF0028F3D00020BB
:1019D000F5E700BFBC030400002310B5CB604B60EB
:1019E000034B8B600C460121FFF7E2FF206010BD26
:1019F000980A0400094B013903EBC000032909D8F8
:101A0000DFE801F00A0204060420704700797047FD
:101A1000407970470020704702207047BC030400E3
:101A200030B5124C00EB400054F8215002FA00F39C
:101A3000072202FA00F06B400D4A03406B40C3F3EB
:101A4000821044F8213002EB8101C3F3C2028242CA
:101A500038BF0246C3F34220824203F0070338BF77
:101A60000246934238BF13464B8030BDBC00002075
:101A70002C0000202DE9F04F064685B01D46174684
:101A8000002A51D0CB6828684C4993F8049007226B
:101A90000DF0B0FA0446C8B9012F07D1484A022117
:101AA000304605B0BDE8F04F04F016B9DFF82C81E0
:101AB00058F8041B68680A220DF09CFA002877D0B9
:101AC0000134052CF4D16B683E4A15E03E49286884
:101AD00008220DF08FFA044660B9012F2DD04FF087
:101AE00001083A4A3A4BDFF8F8A09B1ADB08CDE927
:101AF000013247E02B68374A0221304605B0BDE885
:101B0000F04F04F0E9B818F83530A3420FD20021A5
:101B10002846FFF74DFF524603460221304604F0A7
:101B2000DBF80135BD42EED105B0BDE8F08F2246AD
:101B300029464846FFF774FFF3E7244B244FDFF8AC
:101B4000A0A0FF1AFF08002503F10608EAE71846DF
:101B500000210393FFF72CFF594620220DF04AFA8B
:101B6000039B014608B1013311E0029A02EBC30264
:101B70009279A24216D3224619464846FFF750FFF3
:101B800008F10108B845CFD255F828B00023019AD2
:101B90009A42DCD155F828300F4A0221304604F031
:101BA0009BF8EDE71846FFF703FF52460346F4E7BC
:101BB000022FE4B2C1D04FF0020892E71A070400E6
:101BC00021070400840704002D290400BC0304003D
:101BD000DC0404003807040070070400A80A0400AD
:101BE0004D07040013460A46C168FFF743BF0000D3
:101BF00013B504460191ABB16AB90199104A04EBDF
:101C0000440052F8212007238340134023FA00F0B8
:101C1000C0B202B010BD01A8FFF736FE0028ECD01C
:101C20000020F6E72AB9019A064B03EBC203987924
:101C3000EFE701A8FFF728FE0028F1D1F3E700BF86
:101C4000BC000020BC030400294B2A4A2DE9F04FB8
:101C50009B1A4FEAD30ACB685B7985B005460E46DE
:101C60001BB9254A022104F037F8244B244ADFF837
:101C7000A4800821284604F02FF8224A082128468B
:101C800004F02AF80024544502D105B0BDE8F08FD5
:101C9000F36893F8049001231A4621464846FFF75B
:101CA000A7FF00230746214601224846FFF7A0FF71
:101CB00003280246814628BF0322012120465FFAFD
:101CC00082FBFFF775FE104A58F82B10034658F8B0
:101CD00027000E4F0090D94598BF3A46CDE9011232
:101CE00028460B4A082103F0F7FF0134CBE700BF79
:101CF000DC040400BC030400A3070400B6070400CE
:101D0000C2070400E0070400A107040082140400D5
:101D10001D080400A80A040013460A46C168FFF71C
:101D200093BF0000154B93F8203437B504460BB928
:101D300018B90024204603B030BD0DF066FA01301A
:101D4000009001230E486A4601A906F0C1F9054634
:101D50000028EED12146009A01980DF0B1F9DDE995
:101D600000231344064803F8015C009906F0E8F9E3
:101D70000099034806F0FBF9019CDBE78006002090
:101D80008C0A0400034BD3E90030C31A584258416F
:101D9000704700BF800600202DE9FF47FFF7F2FFE4
:101DA0000646002840F01A818D4DC5F81804BFF38F
:101DB0004F8F6B68AC6800932340033305EB8300BF
:101DC0006946FFF743FC009B18B1D5F81824002A98
:101DD00069D004EA0302991C013305EB8202234017
:101DE00005EB8303D268DB68029302F00303022B46
:101DF000019200916AD1BDF806307A489DF80460DE
:101E0000C3F38918B8F1A00FC14628BF4FF0A0094D
:101E100069F38F1309F10801ADF8063005F0E7FE0C
:101E2000C6F3C2060746002800F0BF8005F00EFF8B
:101E30000023082201A9384605F01BFF009924EA77
:101E400001020132B9EB820F4FEA820337D95FFA00
:101E500089F983B32140DCB2A9EB040903315FFAAD
:101E600089FAA146604C05EB810108234A463846B1
:101E700005F0FFFE34B109F1080352462146384609
:101E800005F0F7FE009B08F1030803EB98030093AD
:101E9000D5F81834002B52D1D5F81044DFF85C91F6
:101EA0004FF0070870E02A689A4285D86A60304689
:101EB00004B0BDE8F0874C491C469A46D5E70C4073
:101EC000E11C08234A4605EB8101D8E7012B6CD1C0
:101ED000BDF804604348C6F38311062928BF0621D4
:101EE00061F3891602318900ADF8046005F07FFEC8
:101EF000C6F3C2060746002857D005F0A7FE002308
:101F0000082201A9384605F0B4FE4FF00008BDF8DC
:101F10000420C2F383124FEA8803904503F10803BB
:101F2000B6D200994A1C21400331009205EB810191
:101F30000422384605F09DFE08F10108E7E738461F
:101F400005F088FEFFF71EFF80F00100C6B2AEE785
:101F5000E3685A79B2B11B79BDF8081003EB43026C
:101F600059F8211008FA02F3052E03EA010323FAB7
:101F700002F308BF0326B34204D3236839461B6823
:101F800020469847E3681C68002CE1D1384605F0EC
:101F900061FE204602F0C2FED5F818340BB9009B52
:101FA0006B60002002F0BCFECCE7D5F8104474B999
:101FB0000E4B5B88012BC5D90D4B0E480E49C01A3C
:101FC000C008000440F0020000F066F8BAE7236899
:101FD00020469B689847E3681C68E8E7002666E7A8
:101FE00080060020DC0404008C0600204C00002049
:101FF000BC030400FC03040033080400BC00002000
:102000002DE9F74F224D04460F46924601A90122C1
:102010001846D5F808909B46FFF736FB20B3019E83
:102020004FF00008B21CD84508EB020126D1194830
:10203000002103F096F980F31000000440EA1440F8
:10204000E400731C04F0380403EA090306EA0906F5
:1020500044F0010405EB8303033644EA881444EAA0
:102060008724D86045F8264095F820341BB1FFF747
:1020700093FE0028FBD103B0BDE8F08F09EA01010F
:1020800005EB81015AF82830CB6008F10108CAE756
:10209000800600209C0A002000231A46FFF7B0BFEC
:1020A00007B50123019201AAFFF7AAFF03B05DF86B
:1020B00004FB07B5CDE9002302236A46FFF7A0FF22
:1020C00003B05DF804FB1FB5CDE90123069B039324
:1020D00001AA0323FFF794FF05B05DF804FB1FB5C9
:1020E000CDE90023069B0293079B03936A460423D2
:1020F000FFF786FF05B05DF804FB7FB5CDE901234E
:10210000089B0393099B04930A9B059301AA05234B
:10211000FFF776FF07B05DF804FB00002DE9F347F9
:102120002B4D0446D01C8946164601A90022800882
:10213000AF68FFF7A9FAA8B3DDF80480AB6808F12F
:1021400002000190013338401B1AB6EB830F00F1F7
:1021500003004FEA830A05EB80002DD8324649463A
:102160000CF0AEFF1B48002103F0FBF880F31000D9
:1021700008F101033B4007EA0807220C05EB830343
:10218000033742EA0040E400D86004F0380455F810
:10219000273044F0020444EA865203F47C131A43C5
:1021A00045F8272095F820341BB1FFF7F5FD0028EE
:1021B000FBD102B0BDE8F087524649460CF080FFE3
:1021C000A6EB0A0209EB0A0105F10C00C8E700BF03
:1021D000800600209C0A00201C4A2DE9F843D2F812
:1021E0001034054688460024194689B9E9680C71FF
:1021F000A3B9C2F810540B60154B164EF61AF60828
:10220000002703F10709B7420DD12046BDE8F88346
:10221000C9680879A04212D00968E6E7DB681A6845
:102220000A601D60E8E719F83720EB684245394637
:10223000187928BF4246FFF7F3FB0137E3E7013483
:102240000A2CD1D14FF0FF34DFE700BF8006002019
:10225000BC030400DC04040007B503460846197AF1
:10226000052911D05B7A2BB1094A0A49019005F082
:1022700098F801980849019005F093F8019803B087
:102280005DF804EB05F082B8002AF8D0F2E700BF51
:10229000180C0400B7150400E413040030B5C3881B
:1022A00085B004460D4633B1144A00921449154ACC
:1022B000284605F076F8217A05291DD0637A4BB1BE
:1022C000A088FFF797FB104B104953F820202846B1
:1022D00005F067F8227A0E4BA08853F8222003926B
:1022E0000021FFF765FB039A0A490346284605B01B
:1022F000BDE8304005F055B805B030BD180C0400FD
:10230000250C04001D0C04008C0C0400B7150400FF
:10231000B00C04003D0C04002DE9F04385B01F46CD
:102320000C9D002395F80C902B7306460C469046A6
:1023300029463846FFF7B2FFB8F1060F09D8DFE8A3
:1023400008F00412181F283340003146284605F0D3
:1023500028F8002229463846FFF77EFF85F80C90C2
:1023600005B0BDE8F08322683146284605F019F82B
:10237000EFE7D4E900233146284605F012F8E8E7F4
:10238000A36800933146D4E90023284605F009F8F4
:10239000DFE7E3680193A36800933146D4E90023A3
:1023A000284604F0FEFFD4E723690293E368019313
:1023B000A36800933146D4E90023284604F0F1FFD6
:1023C000C7E76369039323690293E3680193A368F2
:1023D00000933146D4E90023284604F0E2FFB8E731
:1023E00008292DE9F74F80460E4617461C463CD873
:1023F000002593F80C901D7319461046FFF74EFF09
:10240000DFF888A0DFF888B0AE4231D918F805208F
:102410005946204604F0C5FF0135082DF4D119496D
:10242000194DDFF870A0204604F0BBFF4FF0000B01
:102430005E4522D918F80B207E2A05D81046019255
:102440000CF01AFC019A00B92E225146204604F0E5
:10245000A8FF0BF1010BBBF1080FE9D101222146C6
:102460003846FFF7F9FE84F80C9003B0BDE8F08F12
:102470005146204604F095FFCEE72946204604F059
:1024800090FFE6E74D0C0400233C0400213C0400CF
:10249000470C04004F0C0400074B1B5C1F2B86BF2E
:1024A000064903F01F034FF0A041012202FA03F393
:1024B000C1F80C35704700BFC40C04000003005085
:1024C000074B1B5C1F2B86BF064903F01F034FF011
:1024D000A041012202FA03F3C1F80835704700BF9A
:1024E000C40C04000003005008B50020FFF7E8FF0B
:1024F0000120FFF7E5FF0220FFF7E2FFBDE80840FB
:102500000320FFF7DDBF0000C10710B5044642D528
:102510004FF08043D3F84036DA072ED54FF0102322
:10252000D3F8043303F00703072B26D11D4B0122F8
:10253000C3F80425D3F80024002AFBD04FF0102163
:10254000D1F8042322F0070242F00402C1F8042368
:102550000022C3F80425134AD2F80034002BFBD024
:10256000BFF34F8F1049114BCA6802F4E062134366
:10257000CB60BFF34F8F00BFFDE74FF0A0420C4987
:102580000323C2F81837C2F82037C1F82437C2F83D
:102590003037FFF7A9FFA30742BF054B0C22C3F852
:1025A000182710BD00E0014000ED00E00400FA052E
:1025B0000003005010B50D49A1F5BC72914201D83D
:1025C00000200FE08C1AE30F03EBE4035B1002EB37
:1025D000C30452F83330834205DC02DA04F1080206
:1025E000ECE7606810BD2146E8E700BF5C1104001D
:1025F00008B5FFF7DFFF024B002808BF184608BDEB
:10260000CE0F040007B5002301938DF803300DF1C0
:10261000030005F0DFFE9DF80330032BF7D90421FA
:102620000DEB010005F0E0FE18B9019803B05DF86C
:1026300004FB0020FAE708B500F080FA00F06CF81F
:10264000002005F0A7FE20B1852802D000F0BAF8DE
:10265000FCE7FFF7D7FF0CF0A5FC05F0D5FE10B99D
:1026600000F0B0F8FCE708BD08B500F0ABF8FCE7F7
:1026700062B6704772B67047FFF7C4BF00F0A4BAE5
:10268000431A6FF00042934228BF0B1A1846704756
:1026900010B5044600F098FA241804D300F094FA18
:1026A0008442FBD310BD00F08FFA8442FBD8F9E7D7
:1026B00038B50D4614465AB151B148B105F0EAFE9D
:1026C0002946204605F0BAFE10B900F07BF8FCE779
:1026D00038BDEFF30580003818BF012070470000B7
:1026E0004FF0805307B51A6E596E064B02F0FF0289
:1026F0001343CDE90013082269460CF0E1FC03B056
:102700005DF804FB0036CEF4004870473C0B002017
:10271000704705F0C3BA704708B514F0ABFF48B96D
:10272000054B1A78054B1B78134303D0BDE80840CE
:1027300014F0A6BF08BD00BF04030020080300205A
:102740002DE9F84307460D4614F094FF58B1184C94
:10275000184BDFF86890DFF86880E41AE408240476
:1027600044F003040DB9BDE8F883D9F80000C0F1C6
:102770000806AE42A8BF2E463246394640440CF009
:102780009FFCD9F800203244082AC9F800203744B9
:10279000A5EB0605E6D1084B5B88022B03D9414621
:1027A0002046FFF7BBFC0023C9F80030DAE700BF82
:1027B000B4040400BC030400A8000020880B00201F
:1027C000800B002010B50C4C226882B10B4B5B884B
:1027D000022B0AD90A480B4B0B49C01AC008000447
:1027E00092B240F00300FFF799FC00232360BDE89C
:1027F0001040FFF7D1BA00BF880B0020A8000020CE
:10280000B4040400BC030400800B002040F6F873FD
:102810001868431C04BF054B18684FF08053411CD7
:102820001A695B6908BF03FB02F0704714100010BF
:1028300008B5FFF7EBFFA0F5104008BD0378022BA9
:1028400001D814F02BBF704710B5FFF7DFFF094C1C
:102850002061FFF7EDFF084BE06000220749C3F855
:102860000821204604F06AFF18B1BDE81040FFF7C8
:10287000FBBE10BD4C0100208C0B0020681804002A
:102880004FF4804070470220704708B513460A464F
:1028900031B143B1014618460CF012FC002008BDCE
:1028A0006FF00A00FBE76FF00B00F8E70128F8B5BE
:1028B00007460C4616461D4610D80B44B3F5804F0C
:1028C0000FD28AB19DB1FFF7B3FF04EB8734211813
:1028D0002A4630460CF0F4FB0020F8BD6FF03800BB
:1028E000FBE76FF01600F8E76FF00B00F5E76FF00D
:1028F0000C00F2E70128F7B507460C4616461D46C0
:1029000024D80B44B3F5804F23D22AB3AB0826D08A
:10291000FFF78EFF04EB87310C1814F0C7FE074653
:102920000028FAD114F0B2FE21460E4800972B463B
:10293000324604F03FFF044614F0B8FE0028FBD1F5
:10294000201E18BF0120404203B0F0BD6FF03800D8
:10295000FAE76FF01600F7E76FF00B00F4E76FF09F
:102960000C00F1E74C01002001282DE9F04106465A
:1029700024D8FFF75DFFDFF8508000EB863505F5C2
:10298000804714F093FE04460028FAD114F07EFE2E
:10299000234601222946404604F0CCFF88B914F0B2
:1029A00085FE04460028FAD105F58055AF42E8D1EE
:1029B000304614F083FE2046BDE8F0816FF0380009
:1029C000FAE74FF0FF30F7E74C01002010B5084C54
:1029D000D4F8083153B19BB2D4F8041194F8000133
:1029E0002246FFF787FF0023C4F8083110BD00BF5F
:1029F0008C0B00202DE9F8431C4C1D46D4F80831FF
:102A000081460F4690466BB194F80021824207D16F
:102A1000D4F804211A44914202D1B3F5807F01D148
:102A2000FFF7D4FFD4F8080118B984F80091C4F86E
:102A30000471C0F58076AE4234BFB6B22E464EB1B8
:102A40003246414620440CF03BFBD4F80831334475
:102A5000C4F80831AD1BADB215B92846BDE8F883FE
:102A6000FFF7B4FF3744B044DCE700BF8C0B002015
:102A700007B50B4B0093FFF7DBFE042200F5004186
:102A80000DEB02000CF01CFB042269460DEB02006A
:102A90000CF002F9B0FA80F0400903B05DF804FBD5
:102AA000E737DDF607B5CDE90010FFF7C1FEDDE938
:102AB000001200F50040043003B05DF804EBFFF7AE
:102AC000E4BE37B5054601911446FFF7B1FE04F5A3
:102AD0000044043401992A46204403B0BDE8304044
:102AE000FFF7D3BE0048704764110400024900227A
:102AF000C0E90012704700BF04000306B0F5A27FD2
:102B000001D114F0DDBD704710B5084CFFF7B2FDE0
:102B10002378012B05D1FFF7E5FF06F043F80023EA
:102B20002370BDE81040FFF7A3BD00BF980C002044
:102B3000014B1878704700BF980C00201FB502A801
:102B4000FFF7D4FFFFF7CEFF104A02A905F0A8FF58
:102B500008B1FFF789FDFFF7C5FF0368D3F81045FB
:102B6000FFF7C0FFE2B24FF47031012421FA02F204
:102B700002232146009406F069F8FFF7B3FF05F041
:102B8000F7FF034B1C7004B010BD00BFFD2A00000E
:102B9000980C002008B5FFF76DFD0A4B1B782BB988
:102BA000FFF7CCFFBDE80840FFF762BDFFF79AFFD3
:102BB00006F01CF80028F5D1FFF794FF05F0D8FFC8
:102BC000F0E700BF980C002038B5FFF753FD0B4B22
:102BD0001B78012B0FD1FFF785FF022106F012F8B9
:102BE000044619F03BF80546FFF742FD4FF47050DC
:102BF00000FB054038BD0024F3E700BF980C00201F
:102C00001F2886BF054A00F01F004FF0A042012395
:102C100003FA00F0C2F80C05704700BF0003005033
:102C20001F2886BF00F01F00044B4FF0A04300F5A3
:102C3000E070032243F82020704700BF00030050DB
:102C400008B51620FFF7ECFF1320FFF7E9FF172068
:102C5000FFF7E6FF1120FFF7E3FF1420FFF7E0FF87
:102C60002D20FFF7DDFF13490223C1F838372F204D
:102C7000FFF7D6FF1520FFF7D3FF1620FFF7C0FFA1
:102C80001320FFF7BDFF1720FFF7BAFF1120FFF752
:102C9000B7FF1420FFF7B4FF4FF40053C1F8083515
:102CA0004FF40043C1F808351520BDE80840FFF790
:102CB000A7BF00BF0003005030B50F4D8BB038F0F8
:102CC0003BFE0FCD01AC0FC40FCD0FC42B682360AA
:102CD00001A83BF06BFCFFF71BFD012038F0A6FEBE
:102CE00038F050FE032801D138F058FE012038F0AA
:102CF000A1FE0BB030BD00BF6C11040038F018BE4F
:102D000007B5ADF806000DF1060038F00FFE03B070
:102D10005DF804FB07B5ADF806000DF1060038F0CC
:102D200009FE03B05DF804FB4FF4705310B503FBCC
:102D300000F4204638F057FE0028FAD010BD38F0D5
:102D4000DDBD38F0ECBD10B5044638F0EAFD20706A
:102D500010BD003818BF012038F06ABE003818BF17
:102D6000012038F063BE003818BF012038F05CBE87
:102D700008B938F016BE38F01CBE08B538F002FEAF
:102D8000C31E5842584108BD08B538F0FBFD023853
:102D900018BF012008BD13B50446032C104608D007
:102DA000042C11D0012C15D138F055FE204602B06C
:102DB00010BDA1F59C420093203A44F62063002107
:102DC00038F009FE0446F1E7002102B0BDE81040EA
:102DD00038F0F5BD0024E9E710B50C46FFF794FC88
:102DE000036A013303622046BDE810400DF0A0BE27
:102DF00038F0FEBD08B507290AD8DFE801F0040A5B
:102E0000141B21272D33FFF77FFC436A01334362F4
:102E100008BDFFF779FC836A013383620120BDE8B6
:102E200008400DF0BFBEFFF76FFCC36A0133C362F9
:102E30000420F4E7FFF768FC036B01330363EDE75D
:102E4000FFF762FC436B01334363E7E7FFF75CFC8A
:102E5000836B01338363EBE7FFF756FCC36B0133EE
:102E6000C363DBE7FFF750FC036C01330364D5E772
:102E700030B585B0CDE9022104460193FFF744FC4B
:102E800005680399DDE9013201350560204605B08A
:102E9000BDE830400DF0AABE08B506280AD8DFE824
:102EA00000F0040D13191F252B00FFF72DFC4368BC
:102EB00001334360134B00221A6008BDFFF724FC66
:102EC000836801338360F5E7FFF71EFCC3680133B5
:102ED000C360EFE7FFF718FC036901330361E9E71B
:102EE000FFF712FC436901334361E3E7FFF70CFC92
:102EF000836901338361DDE7FFF706FCC3690133B2
:102F0000C361D7E7BC9700200B46111E18BF0121F3
:102F10000BB138F09ABD38F08FBD08B5002038F0FD
:102F200097FDBDE80840012038F092BD70B58CB027
:102F30001C460546164613F008FC0146284613F0C9
:102F4000EEFC022C014620D0032C23D06CBB4FF6A4
:102F5000FF73ADF82E3000230122CDE9062305933F
:102F6000149B0493BDF84C300393BDF84830029392
:102F70009DF8443001939DF8403000930DF12E02EE
:102F80002346284619F0D4FF12E03378727843EADA
:102F90000223DEE70990304613F002F84FF6FF7384
:102FA00098420999ADF82E0004D1284613F0C8FACA
:102FB0000CB070BD0224CEE71FB50021039001AA1A
:102FC00044F20100CDE90111FFF7A5FB05B05DF862
:102FD00004FBD0E90223D1E90201994208BF9042E3
:102FE0002CBF01200020704708B50B4801F0CBFF33
:102FF0000A4B0B49D3E900231218D1E9000143F130
:1030000000038B4208BF824203D212F1807243F167
:1030100000031046194608BD7C010020A00C0020CA
:10302000080D002037B505460C460A4801A902F0F4
:1030300023F960B10570446001A9064802F046F921
:1030400018B1054801F0A4FF002003B030BD0420F2
:10305000FBE700BF680100207C01002038B5194B58
:103060001B78044613B90025284638BD0028FAD03D
:1030700090F8203003F0FF05002BF4D0FFF7B4FFE9
:10308000D4E90223994208BF904216D323690BB9B1
:1030900084F82030D4E90530984721690029E2D02E
:1030A00094F8203003F0FF05002BDCD0D4E9022394
:1030B000521843F10003C4E902230348214605F0F6
:1030C00067F8D1E7A80C0020E011040013B5114BFC
:1030D00011491868019008231048582202F0B9F8E5
:1030E000044698B90E4A0F4801A901F02BFE044688
:1030F00060B90C48012101F029FF01230A4A09485F
:10310000194601F08BFE094B01221A70204602B0CD
:1031100010BD00BFDC110400AC0C002068010020D1
:10312000853100007C010020FFFF7F00A80C0020FB
:103130003AB103685A614A1E514251411961002057
:1031400070470720704738B590F8203004460D4688
:1031500083B98261FFF748FF2369401941F10001FB
:10316000C4E9020103B1256121460020BDE83840D1
:10317000FFF758BF002038BD014801F004BF00BF71
:103180007C0100202DE9F04F85B0804601F0E6FE7D
:1031900040B15C4AD2E9003113F1807341F1000182
:1031A000C2E900310021404601F0E7FE38B1564E39
:1031B000336823B13068FFF751FF002333600121EA
:1031C000404601F0DAFE20B1FFF70EFF4F4BC3E996
:1031D00000014F484C4F4F4EDFF8409103A902F0D9
:1031E00085F8002846D1DFF82C91474EDFF830A152
:1031F000484604F0E3FF3368002878D083B1336891
:10320000D0E90201D3E90223994208BF90422ED2AD
:10321000336893F820301BB13168484604F0B8FF9A
:10322000484604F0C5FFD0E902B307460193FFF713
:10323000DBFE019BBBEB000463EB0105012C75F188
:10324000000347DBB4F5350F42D3FFF795FF324A51
:1032500002444FF496030021504601F0FFFD002880
:1032600040D1336813B9404601F0D0FD376005B056
:10327000BDE8F08F0378012B1FD0022B09D14FF04E
:10328000000A304604F094FF002836D080F820A0D1
:10329000F7E74BB9416891F820302BB9012381F849
:1032A0002030304604F074FF03A9194802F049F8B1
:1032B00003A9174802F01AF893E741683B6899425E
:1032C00002D100233B60EFE7304604F07AFFEBE7E2
:1032D000BA68BEE70021504601F045FE3846FFF7C8
:1032E000BDFE01E00D28F9D00023336080E7002BFC
:1032F000BDD1404601F08EFDB9E7012389F80030C9
:10330000D2E700BFA00C0020100D0020080D002007
:1033100068010020E0110400FFFFB400A80C0020A9
:103320007C01002043681B6818470000024B5B6863
:1033300003B11847704700BF140D0020020600F0CB
:103340000F034CBF02480348DB001844704700BF1E
:10335000200D0020680D002008B5FFF7EFFF016089
:1033600009B14B681968416008BD0000024B014675
:10337000D3E90002104700BF680D00200378052B39
:103380000CD1084AD2F88434D2F8802412F0FF0F0E
:1033900004D1054ADBB2052B08BF1046034B1B685E
:1033A000184700BF007002400C120400140D0020EA
:1033B000012805D0022805D030B90448FFF7DEBF48
:1033C0000348FBE70348F9E7704700BF0012040019
:1033D0000412040008120400FFF7D0BF0148FFF7F1
:1033E000CDBF00BF1012040038B5831EDBB2062B20
:1033F00098BF1A4A1A4D98BFD25C2B78A3F10203EA
:10340000DBB288BF0022062B9ABF1449CB5C002395
:103410009342044603D0B2B1124804F041FF022C9B
:1034200014D0A4F10800424242412B78022B0FD065
:10343000A3F108014B424B41934202D052B106F036
:1034400069F92C7038BD04F055FFE8E70122ECE77C
:103450000123F1E706F054F9F3E700BFF51104008A
:10346000B90D0020840100202DE9F04F87B000261F
:103470000546884691461F4602966B6800225C68A6
:103480002946012302A8A047044638B98DF8060052
:1034900004908246564503D8052028E00136ECE723
:1034A0006B680DF10602D3F804B02946012304A885
:1034B000D8476B680DF10702D3F804B02946012301
:1034C00004A8D8479DF8073043459DF8063013D12E
:1034D0004C450FD1109A13603B7087F801806A68E1
:1034E000023B54682946BA1C04A8A047002007B034
:1034F000BDE8F08F0134E4B26A68023BD2F804B050
:103500002946002204A8D8479DF806309A44C1E70E
:103510002DE9F74305462B4806F012F9044600282A
:103520004CD1294B1870294B1860294B0146186063
:10353000482228480BF0EDFD2748482221460BF091
:10354000E8FD264B95B9264A1D72C3E900250020E7
:1035500004F0E4FE18B1852801D0FFF72DFD214FBE
:10356000002697F8089007F1090814E095E807008D
:1035700083E807000028EAD1194A1A60E7E7A27831
:1035800023443946985CFFF7E7FE01356278EBB2D9
:103590009A42F4D80136F4B2A14504D904EB4404AC
:1035A00044440025F2E70B230E488DF8043001A9AE
:1035B000FFF7B8FE044608B105F06CFF204603B0E3
:1035C000BDE8F083D9330000B90D0020B00D002014
:1035D000B40D0020200D0020680D0020140D0020E7
:1035E000113900004412040010B506F037F810B984
:1035F0000823184610BD06F039F804460028F7D114
:10360000044804F0A6FE03460028F2D0FFF7D4FCDD
:103610002346EEE7FC11040005F046BF06F032BC7D
:103620004FF08043D3F83824920702D50348FFF7C0
:10363000A5BED3F83824D107F4D470471112040082
:1036400007B5822301A88DF80430FFF797FE03B079
:103650005DF804FB2DE9F74300F1090190F80890AB
:10366000054600260F46F3B24B452AD291F8018059
:103670000024E3B298450AD98B780A190134D05C4A
:10368000FFF75CFE0368002BF3D0112028E0013621
:103690000331E8E7A37823442946985CFFF75CFEF2
:1036A00001366378F2B29342F4D808F101082B7A1C
:1036B0005FFA88F4A34216D904EB44043C44002684
:1036C000EFE74FF00008F2E713681A68002AFBD111
:1036D0001D6001A90B2328468DF80430FFF722FE58
:1036E00003B0BDE8F083014BEFE700BFB00D002051
:1036F000024B1878003818BF01207047B80D002021
:10370000030710B5044604D406F04EF9204606F02F
:103710007FFC2046BDE8104006F026BC06F0F2BB58
:10372000014B1868704700BFB00D0020F0B50A4B80
:103730000246186878B1057A0023861DDCB2A542DE
:1037400001D80368F5E7013303EB4307F75D9742C0
:10375000F4D101B10C70F0BDB00D00201146FFF79F
:10376000E1BD08B500F00F03082B07D8FFF7E6FD11
:10377000006818B1BDE80840FFF7D4BD102008BDAF
:1037800038B5054B05461C6804B938BD29462046A6
:10379000FFF7C8FD2368F6E7B00D002038B5074BEA
:1037A00005461C680CB9062038BD29462046FFF79F
:1037B000B9FD0628F8D12368F3E700BFB00D00205B
:1037C00013B50446019106F001F850B1064B1B7881
:1037D000022B06D10199204602B0BDE8104006F048
:1037E00005B8082002B010BDB90D002013B504467D
:1037F000019105F0EBFF50B1064B1B78022B06D16F
:103800000199204602B0BDE8104006F063B80820D8
:1038100002B010BDB90D0020F8B543689B6805469D
:103820000C46164613B92EB1072002E09847062829
:10383000F9D0F8BD2B7AA34213D9093504EB44041F
:103840002C446778F3B29F4201D80020F1E76278F8
:103850009A4208D9A219A378D05CFFF751FF01362C
:10386000F0E77378FFDE00231B78FBE74368DB6833
:1038700070B505460C4603B198472B7AA34213D97D
:10388000093504EB44042C4400256678EBB29E42D3
:1038900000D870BD62789A4209D96219A378D05CC9
:1038A00006F030FB0135F1E700235B78FFDE0023F3
:1038B0001B78FBE743681B6903B11847184670473C
:1038C00070B5084B1C6804B970BD267A0025E9B2B2
:1038D0008E4201D82368F5E700222046FFF79CFFBF
:1038E0000135F4E7B00D002070B5084B1C6804B931
:1038F00070BD267A0025E9B28E4201D82368F5E72B
:103900002046FFF7B3FF0135F5E700BFB00D0020FB
:1039100038B503780F2B044610D9A3F1800283F049
:103920008003052B00D938BD052AFCD8DFE812F04A
:1039300067002C00490073007E00E0000F2BF2D8D6
:1039400001A252F823F000BF4F3A00007F3A000076
:10395000DF3A0000A33A0000C13A0000F13A00004B
:10396000033B0000273900002D3B0000313B0000E5
:10397000353B0000273900002739000027390000B7
:1039800027390000FB3A00006B48FFF7EFFC6A485C
:10399000FFF7F6FE0D20FFF7C9FCFFF7A5FF00F0CB
:1039A000CCFE664B1B6853B9654B187A00F00100DA
:1039B00005F02AFE0120BDE83840FFF715BD0120C3
:1039C000F4E7FFF791FF06F03FFA0020FFF70CFD48
:1039D0005C48FFF7D5FE5B48FFF7C8FC0E20FFF7F9
:1039E000A5FC594B1B78023BDBB2062B9BD8574AF0
:1039F000D35C002B97D0BDE8384004F07BBC524B21
:103A00001B78062B05D003F0FD03052B8BD102207C
:103A1000D1E70820CFE74C4B1B78032B83D106F06E
:103A20004BFA00283FF47FAF0420C4E7464B1B78D5
:103A3000032B05D106F040FA10B10420FFF7D4FCA7
:103A400005F02CFE00283FF46EAF0620B3E73E4B96
:103A50001B78032B01D0082B02D13D48FFF758FFFC
:103A60000020FFF763FC354B1D68002D3FF45BAF72
:103A700028462146FFF756FC2B685D68F5E7FFF7FF
:103A800033FF00F051FE0220FFF7AEFC0120FFF7EC
:103A90004DFC2046FFF76AFC2046BDE83840FFF7A2
:103AA0006FBE294B1B78082B06D10220FFF79CFC28
:103AB00005F03AFE0320EAE70520FFF795FCF9E759
:103AC0000320FFF733FC2348FFF750FC2148FFF7A2
:103AD00057FE1D4B1B78062B99D107206BE703205F
:103AE000FFF782FC0220FFF721FC2046FFF748FE8B
:103AF0002046BDE83840FFF739BC0F20FFF716FC21
:103B0000CAE78078FFF71AFC2146436800689847A7
:103B100000283FF408AFA07802073FF404AF030782
:103B20003FF501AFBDE8384005F018BF0820E5E7D4
:103B30000920E3E70A20E1E712120400B40D002097
:103B4000140D002013120400B90D0020F51104001B
:103B50001412040015120400C36903B1184770471A
:103B600003680022C3E91E22C3E920221A845A6294
:103B7000DA6203F134025A677047CA699A4210B593
:103B800043600CD38C690460086F18440867D01A2E
:103B90001C44C86100388C6118BF012010BD01F1C0
:103BA000280202608B670020F8E7CA6943609A42E6
:103BB00027BF8A69026001F12802026026BF0B67F5
:103BC000CB618B6700207047F0B504680D7A002C3C
:103BD00000F08780A4F545747C2C00F222837C2CB5
:103BE00000F21F83DFE814F085008F009D00A9001C
:103BF000B500C100CD00D9001D031D031D031D0329
:103C00001D031D03EF00FB001D031D031D031D030A
:103C10001801240132011D031D031D03450151013B
:103C20007F011D031D031D031D03670173017F0138
:103C30001D031D031D031D031D031D038B011D0318
:103C40001D031D031D039F01AB01B701C301CF017C
:103C50001D031D03DB01E701F301FF010B021D033F
:103C60001D0317022302340240021D031D034C02F0
:103C70005802640270027C021D031D031D031D0314
:103C80001D031D031D031D031D031D031D031D0334
:103C90001D031D031D031D031D031D031D039B02A7
:103CA000A7021D031D031D03C0021D031D031D03E9
:103CB0001D03DD021D031D031D031D03DD021D0386
:103CC0001D031D031D031D031D03E902F5021D0352
:103CD0001D031D031D0313031D031D031D031D03EE
:103CE00013030824047123B94FF4457303600120C2
:103CF000F0BD0AB1047914700B24012B04710ED8A5
:103D000040F21533F2E700240AB106791655013462
:103D10000E7D06719C4205D340F21633E6E701247E
:103D2000F2E700240AB106791655013402269C42B6
:103D3000067103D340F21733D8E700240AB106799D
:103D40001655013402269C42067103D34FF4467384
:103D5000CCE700240AB106791655013402269C42AC
:103D6000067103D340F21933C0E700240AB1067983
:103D7000165501344E7E06719C4203D340F21A332D
:103D8000B4E700240AB106791655013400269C4296
:103D9000067103D340F21B33A8E700240AB1067969
:103DA0001655A94E002701343770A74E3678AE421B
:103DB00002D340F29B3399E70926A342067103D848
:103DC00040F2223392E700240AB1067916550134F5
:103DD00004269C42067103D340F2233386E7002475
:103DE0000AB106791655984E0F7A3678DFF85CC21C
:103DF000B74204F1010440F2188201F1090706EB11
:103E0000460607EB060E9C42BE5DCCF800E006714C
:103E100003D34FF44A7369E700240AB106791655B3
:103E2000013400269C42067103D340F229335DE73A
:103E300000240AB106791655844E36680134767826
:103E400006719C4203D340F22A334FE700240AB1A3
:103E5000067916557D4E0F7D36683678B74204F1E7
:103E600001041ED102269C42067103D340F22E3378
:103E70003CE700240AB106791655013402269C421B
:103E8000067103D340F22F3330E700240AB10679DC
:103E9000165501344E7E06719C4225D34FF44C7367
:103EA00024E78F7DB74223D10A269C42067103D3B3
:103EB00040F235331AE700240AB106791655013469
:103EC00000269C42067103D340F236330EE70024ED
:103ED0000AB106791655013400269C42067103D3B7
:103EE00040F2373302E700240AB10679165501344F
:103EF0000026A342067103D840F23E33F6E60024C2
:103F00000AB106791655514E0F7D36683678B7429C
:103F100004F1010440F0E98005269C42067103D3B8
:103F200040F24333E2E600240AB106791655013423
:103F300024269C42067103D34FF45173D6E6002425
:103F40000AB106791655013400269C42067103D346
:103F500040F24533CAE600240AB106791655013409
:103F600010269C42067103D340F24633BEE600247D
:103F70000AB106791655013401269C42067103D315
:103F800040F24733B2E600240AB1067916550134EF
:103F900005269C42067103D340F24A33A6E600246C
:103FA0000AB106791655013424269C42067103D3C2
:103FB00040F24B339AE600240AB1067916550134D3
:103FC00001269C42067103D34FF453738EE60024FE
:103FD0000AB106791655013403269C42067103D3B3
:103FE00040F24D3382E600240AB1067916550134B9
:103FF0008E7D06719C4203D340F24E3376E6002458
:104000000AB106791655013404269C42067103D381
:1040100040F251336AE600240AB10679165501349C
:1040200024269C42067103D340F252335EE60024FC
:104030000AB106791655013402269C42067108D34E
:1040400040F2533352E600BFBB0D0020C00D0020EC
:1040500000240AB106791655013402269C420671E5
:1040600003D34FF4557341E600240AB1067916557F
:10407000013405269C42067103D340F2573335E6DE
:1040800000240AB106791655013424269C42067193
:1040900003D34FF4567329E600240AB10679165566
:1040A000013406269C42067103D340F259331DE6C3
:1040B00000240AB10679165501340E7D06719C4222
:1040C00003D340F25A3311E600240AB1067916559B
:1040D00001348E7D06719C4203D340F25B3305E6CA
:1040E00000240AB1067916550134534E36687778A4
:1040F000524E3770524E00273770514E37784F4E20
:104100003678B74204D34F4F3E7801363E704CE6C6
:104110000726A342067103D840F26F33E6E5002478
:104120000AB106791655013405269C42067103D35F
:104130004FF45C73DAE500240AB1067916553E4E59
:104140003F4F36683F7896F801C0BC4504F1010442
:1041500070D996F802C03E449C4216F80C60067175
:1041600003D34FF45D73C1E500240AB106791655F7
:10417000314E0F7D36683678B74204F1010406D11E
:1041800003269C4206710DD340F27933AEE58F7D54
:10419000B7420BD102269C42067103D340F27E3314
:1041A000A4E500240AB10679165501344026A3423D
:1041B000067103D840F2853398E500240AB10679E8
:1041C0001655013400269C42067103D340F2863313
:1041D0008CE500240AB106791655174E0F7D366816
:1041E0003678B74204F1010407D10E6A9C42367852
:1041F00006710DD340F28B3378E58F7DB7420BD13A
:1042000000269C42067103D34FF464736EE50024CC
:104210000AB1067916550134094F3E7801363E70D1
:104220006BE700230360184662E50023CCF80030FA
:104230001B78FFDE0023FBE7C00D0020BA0D002035
:10424000BC0D0020BB0D002010B5044658B908680D
:10425000037B202B09D100F10E01072218300AF050
:104260002FFF204610BD0320FCE70620FAE7037A63
:10427000012B08D9427B012A00F10C0306D9827B6D
:1042800013445878704700235B78FFDE00231B78C7
:10429000FBE700002DE9F0470B7888B005460E4695
:1042A0000E2B1AD8DFE813F05C0037015C005C00CD
:1042B00019000F00A20019001900340119005C0058
:1042C0005C005C005C004A78D1094FEA521330D0A0
:1042D00013F0030303D0012B21D006241BE002F0CE
:1042E0001F02012AF9D1B478062CF6D105A8039350
:1042F00000F09EFC03AB0093F27831790346074649
:104300002846FFF7B1F8052805D0039A3946701CF6
:1043100000F02EFA0446204608B0BDE8F087B378D6
:10432000212BDAD1B6F80720072AD6D10168183137
:10433000EDE7012BD1D1B3780768202B12D0222BC7
:10434000CBD1B6F80730002BC7D197F82020B6F8AC
:1043500003303B8402F0010203F001018A4220D1C4
:104360000024D8E7B6F80730072BB6D14FF4E46243
:10437000BA8100200E37CDE90573079000F0CEFC1E
:1043800005A90020FFF71CFA044630B9684B03A9C1
:10439000CDE9033500F0DAF90446002000F0C0FC56
:1043A000B9E78CB2C1F10301C9B2FFF7D5FB002C0C
:1043B000D6D12B7A012B40F2B4806B7B05F10C0235
:1043C000002B00F0B080AB7BD05C05F01DFC2846D4
:1043D000FFF74DFF05F018FC07F13403C7E91E4451
:1043E000C7E920447C62FC627B6794E7037A002B78
:1043F00000F09B80837A00F10901002B00F093808C
:10440000C27AB3788A5C9A42AAD01B06F77809D59B
:1044100027B1032F14BF032400247CE70121FFF7F9
:104420009BFB9DE707F0FD03012B99D0002F76D170
:104430000668FFF71CFF3F4BB46A059306F10C03B7
:1044400081460693C4B9F36FB467C6E91F43F36AA4
:1044500063B1D6E90B0106F1240383E80300F4629B
:1044600005A94846FFF7C2F9044600E0746200213E
:104470002846FFF771FB4EE7D6F884A0706A5445D2
:1044800028BF544606F13408224641460AF018FE79
:10449000F36F2344C6E91F73AAEB0403B367F36AFF
:1044A000444474672BB306F1240406F12C0898E801
:1044B000030084E80300B36F706AF7621BB9736A84
:1044C000002BCDD116E0B26A716F9A4214D80AF06F
:1044D000F7FDB36AB26FC6F88030D21AB267726F56
:1044E0001A44726700212846FFF736FBF36A002B57
:1044F000DDD173620024BAE71A460AF0E1FDB26F1B
:10450000B36AF2679B1AB362736A13447362D6E7A5
:104510000321FFF721FB2846FFF722FB20E70324B6
:10452000F9E66378FFDE1B78FCE75B78FAE700BF0B
:10453000494200007B3B00001FB503681B8CDC0771
:1045400014D5037A012B13D9437B00F10C0493B1EA
:10455000837BE05C9306CDE901120CBF01230023AD
:1045600001A90393FFF72CF904B010BD0820FBE765
:1045700000235B78FFDE1B78FCE70368D3F880003C
:10458000704700002DE9F3410468238CDB070646E1
:104590008846174630D5002000F0C0FBA56FBDB19E
:1045A000BD4228BF3D46616F2A4640460AF088FD5D
:1045B000A36FC4F880505B1BA367636F2B446367D2
:1045C0000024002000F0ACFB204602B0BDE8F081E2
:1045D000636A7BB9C4E909873046FFF748FE0C34AB
:1045E000064B019469460093FFF700F9041E08BFCB
:1045F0009224E6E71124E4E70824E5E7AB3B00005A
:10460000002070472DE9F04F2DED028B4B6885B0EF
:1046100080460C4601926BB90B681B681B684BB94E
:104620008D683DB9C0E90055284605B0BDEC028B48
:10463000BDE8F08F05F08EF9019BE7689F4228BF27
:104640001F4604F110034FF0000A08EE103A8146AD
:10465000564601254FB3A3686168BB429B4628BFFD
:10466000BB4629B35A4609EB06000AF029FD002390
:104670006360A268E368A2EB0B02A3EB0B03A260EA
:10468000E360A7EB0B075E440ABBBAF1000F03D04F
:104690002268126812682260DBB12368DBB96360AC
:1046A0001EB1019BB34288BF0025C8E90096BBE755
:1046B000002BDED021684B6818EE100AD3F804A056
:1046C00009EB06025B46D0474FF0010AD1E7002B09
:1046D000C0D10025BEE70023029321684B68002269
:1046E000D3F804B002A80123D84708B92061B1E784
:1046F000A3680133A360F0E7084B1A7882420CD01C
:10470000052818BF064A187018BF137805481CBF43
:1047100023F002031370FFF7FBB87047D00D0020A1
:10472000EC0D00205412040008B50020FEF7E8FF4D
:10473000BDE808408020FEF7E3BF08B50020FEF783
:10474000EDFFBDE808408020FEF7E8BF38B505461C
:104750000C4605F0A3F9A84205BFD4E90001034BBC
:104760001020C3E9000108BF002038BDF00D002073
:104770007FB5C38893421E4628BF164693420D4616
:10478000144620D9802005F01BF8B4FBF0F202FBA0
:104790001040B0FA80F0400903900020CDE90156A6
:1047A00000F0BCFA01A98020FFF70AF8044620B9FE
:1047B00006498020FFF7CAFF0446002000F0B0FA47
:1047C000204604B070BD0020E6E700BF8812040058
:1047D0002DE9F04F0B780E2B89B00D4613D8A3B1FD
:1047E000013B0D2B11D8DFE813F012001A00160060
:1047F00010002A00F50110001000100010001A002F
:10480000DF01E301F301852B13D00624DCE1032053
:10481000FFF772FFF9E7B14800F0FCFD08B900248A
:10482000D2E1AF4B01221A60BFF36F8FBFF34F8FFE
:10483000F5E7AC4B1B78032BE7D10420E8E7052311
:10484000A94D8DF814300DF1150005F0BDF80023C9
:104850002B609DF8153003F01F07032F00F25D81D8
:10486000DFE817F00400F60052013E0013F0600F7D
:10487000C3F3411834D1DB099DF8161000F0A28073
:10488000062916D0082900F08F8049BB974C0222D8
:1048900020460AF03EFC237843F001022270944A3D
:1048A0001278920744BF43F00303237002228F491A
:1048B0000EE09DF81830022B16D0032B64D0012B8C
:1048C0000ED1BDF81B30002B00F06B8189491222FC
:1048D0000DF11500FFF74CFF0446062C40F0258132
:1048E00005A8FEF75BFFF7E0BDF81B60002E00F0A7
:1048F0005881092E28BF0926FEF712FF4FF009093B
:10490000044654BB794C7C49324620460AF0D8FB19
:104910002771A4F80290FEF7EBFE18B1E37943F09B
:104920002003E371FEF7FCFE744BC3E900049E60B4
:10493000BDF81B20DA60002000F0F0F970498020FB
:10494000FEF754FF044620B96E498020FFF7FEFEB3
:104950000446002000F0E4F9BFE7CDF80C804FF0EA
:10496000000A63680022D3F804B02146012303A89B
:10497000D84730B9237A1F442368D1441C68FFB25A
:10498000BFE70AF1010AECE7BDF81B30002B00F08D
:104990000881BDF819109DF8170000F099F901463B
:1049A00000289DD0027893E74E4A1278052A03D159
:1049B0004E4A137001227AE7042A91D14B4B83F8B7
:1049C0000080F7E703290FD009292BD0012987D1CF
:1049D000BDF81730012B83D1FEF78AFE60B1444A3F
:1049E000137823F002030FE0BDF81730012B7FF49A
:1049F00077AFFEF77DFE18B90F2405F04CF8E3E021
:104A00003B4A137843F0020313702B68002B00F02D
:104A1000C88005F043F8044600287FF400AF04F096
:104A2000F9FFD1E02F4B1B78043B012B01D908245F
:104A3000E3E79DF817302BB9FEF756FF0420FFF788
:104A40005BFEE2E7012B40D1FEF73AFF0520F6E7D7
:104A50009DF8190003A9FEF769FE064608B910245F
:104A6000CBE79DF80C1005AAFEF778FE0628044651
:104A70005BD19DF8152012F0600FBED1194B9DF847
:104A80000C1018789DF81630D20916D07BB10A2B7D
:104A9000B3D10528CBD130460192FEF70BFF134965
:104AA000019A08700DF11500FFF762FE14E0052869
:104AB000BDD10E490B800222F4E70B2B9DD10528B6
:104AC000B5D1BDF81730FF2B01D9072495E79DF824
:104AD00017203046FEF7A0FE044626E0F80D002021
:104AE0005C700240D00D0020F00D0020FC0D002075
:104AF000EC0D00207412040055120400D40D0020A7
:104B000090120400881204009DF81900070706D1CE
:104B10009DF8153013F0600F0BD006246DE705A942
:104B2000FEF71FFE06280446F2D0002C3FF46DAFBE
:104B300063E79DF81620394B9DF819401B78012A30
:104B40001DD0032A0CD0002AE7D1052B02D026075E
:104B50007FF46DAF204604F00DFF31490880AAE7CD
:104B60002007DAD4BDF81720002AD6D1052B02D0B1
:104B700021077FF45CAF204604F0F0FE45E72207F2
:104B8000CBD4BDF81720002AC7D1052B02D02307AC
:104B90007FF44DAF204604F007FF204605F038FAB9
:104BA00033E704F075FF3AE60020FFF7A5FD36E68F
:104BB0004FF08043D3F8384414F0010401D00220B0
:104BC000F3E70120FFF798FD204609B0BDE8F08F1C
:104BD0000120EAE7C87803283FF417AE114E336886
:104BE000D3B10022716832609847044600287FF4F0
:104BF00004AF336823B1AB78002B7FF410AE0EE71F
:104C0000094B1B68082B04D1084B1B68002B3FF491
:104C100006AE04F03DFFD7E70E24EEE6D00D0020EF
:104C2000FC0D0020F00D00203001001034010010B8
:104C300008B1402303600148704700BFFC0D00200D
:104C400070B54FF0805286B0D2F8A830D2F8A420C8
:104C500000926FEA83436FEA93430B4A0B4E9BB279
:104C60000D2102A80AF08AF902AD002402A80AF078
:104C7000CCFA844201D306B070BD15F8013B06F8AA
:104C8000013B0134F2E700BF981204003C0E002003
:104C900010B50E4B53F8204023780BB9A01C10BD63
:104CA0000020FFF7C5FF013C00235A1CA15C39B965
:104CB000DBB201335B00DBB243F440730380EEE709
:104CC000D3B220F813101346EFE700BFEC12040034
:104CD00008B9FFF7DDBF052807D8054A105C20B1E9
:104CE000044B53F82030002BF3D10020704700BF55
:104CF00004130400EC12040072B6024A1368013374
:104D0000136070474C0E0020034A1368013B136088
:104D100003B962B6704700BF4C0E0020FFF7ECBF2E
:104D2000FFF7F2BF90B200F087BA435882B03BB1B0
:104D30000023435043580193019B012002B0704768
:104D40001846FBE7F8B5284B4679284C43F826204F
:104D5000274B5F8804EBC6034FEAC60C1B796BB187
:104D6000012F09D92348244B2449C01AC008000444
:104D700040F00200FDF790F90820F8BD03680A88AA
:104D8000C3F8082590F904508A780379002DADBF47
:104D900005F160411A4903F00F0E01F561414FEA38
:104DA0004212D2B2B4BF01F80E2081F800236D097F
:104DB0000122144903F01F0302FA03F341F82530DE
:104DC00004EB0C03022F44F836001A7109D9094884
:104DD000094B0D49C01AC008000440F00300FDF75C
:104DE0005BF90020C9E700BF580E0020500E0020DC
:104DF000540000200C040400BC0304000A13040047
:104E000014ED00E000E100E02C130400036801222F
:104E10001A607047036801225A60704773B501F148
:104E20005005AD000068ADB24FF480348C400026D0
:104E3000C0F80843C0F84843465101F5A8714559E8
:104E4000019522F07F42019D40F82120C0F84443A3
:104E50000BB1C0F8044302B070BD00002DE9F74F5C
:104E60000D4622F07F4402684FF4803705F150066A
:104E70008F408046B60002EB8500C2F84873B6B298
:104E8000C2F80873D2F8041599464FF0000BD0F819
:104E90004035C0F8401542F806B05B1A92590092AE
:104EA00023F07F43012B009A4FEA850A0CD1264B51
:104EB0004FF4806043F001039847D8F8003043F87E
:104EC00006B09B590193019BD8F80010D1F80465F6
:104ED000C1F84473A31B23F07F43012B1CD11A4B51
:104EE00005F5A875013443F0010341F825404FF45E
:104EF00080609847D8F80030D3F804359E4209D135
:104F0000D8F800300020C3F84473C3F8047303B02A
:104F1000BDE8F08F0D20FAE78A44C9F1FF13CAF803
:104F20004045D1F80405221A013A22F07F4203F5E8
:104F30007F439342EED3002AE2D10134CAF84045C0
:104F4000D1F804359842DAE74013040003680222DE
:104F5000C3F8442309B1C3F80423704700684FF431
:104F60008271FFF7E2BE4FF4803303FA01F1036868
:104F7000C3F84813C3F8081370475031890000681C
:104F800089B2FFF7D2BE0368D3F80405704700006A
:104F900090F9043001215A0903F01F0301FA03F3C9
:104FA0004032024941F82230704700BF00E100E082
:104FB000024B034A1B681068184700BF580E0020B8
:104FC000500E00200B0710B5044607D509F022FE4D
:104FD00020B12046BDE8104009F054BE204610BD67
:104FE0002DE9F04F87B0894615460293824620B9D5
:104FF0000127384607B0BDE8F08F0029F8D0029BA2
:10500000002B00F0148102F004030C460493D046F8
:10501000294618F8010BFFF7D5FFC6B23F2E28D05E
:1050200010F0C0070AD1DEB12A2E3AD014F8010BD5
:105030002946FFF7C7FF864223D0D9E75B2E00F051
:1050400081805C2EF2D1EA07F0D49AF8010029465B
:10505000FFF7B8FF10F0FF0618BF0AF10208E5E7F6
:10506000E806237801D52F2BC3D01F1E18BF0127B8
:10507000BFE72378002BBBD02F2B04D1A907B7D4CF
:105080000134C246C3E72E2BFAD1049B002BF7D084
:105090004C45ADD0AA07F3D514F8013C2F2BEFD126
:1050A000A6E79AF801002946FFF78CFFC1B22A292A
:1050B00017D023782E2B09D1049B3BB14C4597D0B8
:1050C000AB0703D514F8013C2F2B91D069B9AE077B
:1050D0008FD5ED068DD42F21204609F07CFF071EC9
:1050E000C4E718F8010F2946DEE72F2921D0029BDB
:1050F00025F0040B03F1FF3905F0020A2746294683
:105100003878FFF75FFF10F0FF0604F101043FF469
:105110006FAF39464B465A464046FFF761FF0128BC
:1051200007467FF466AF2F2EE8D1BAF1000FE5D025
:105130005EE7A807DBD5204609F04DFF04460028AE
:105140009FD155E7207800283FF452AF2F2802D195
:10515000A9073FF54DAF2946FFF734FF9AF8013014
:10516000212B834601D05E2B23D10AF102060123B5
:105170000122019305EA02034FF0000A0393374628
:10518000294617F8010B0592FFF71CFFC3B25D2BF0
:10519000059A11D1FAB9019B53453FF429AF7B1C05
:1051A00004D123785B2B7FF423AF47460134B84604
:1051B00067E746460023DBE72F2BF2D05C2B07D1B5
:1051C000039A42B970782946FFF7FCFEB71CC3B2B8
:1051D000002B3FF40DAF3A782D2A22D17878059331
:1051E0002946FFF7EFFE10F0FF00059B19D05D2860
:1051F00017D05C2807F102060BD1039A4AB9B87898
:105200002946FFF7DFFE10F0FF003FF4F1AE059BEB
:10521000FE1C9B4503DB8345D8BF4FF0010A0022EB
:10522000ADE73E469B4508BF4FF0010AF7E703276D
:10523000DFE64023FFF7D4BE07B5ADF800000191CB
:105240006A46002144F20200FDF765FA03B05DF8FA
:1052500004FB10B561B1B2FBF3F403FB1424A4B258
:1052600044B9C0E9001484608281C381204610BD26
:105270000E20FCE70920FAE737B550E8013F9DB260
:10528000C48925448489A54228BF2D1B0489A542D1
:1052900002BFBFF32F8F002207E0C5EA030540E8F5
:1052A0000154002CE9D14FF001028DF80320019345
:1052B000019B9DF803200B6002F0FF0322B10B88D5
:1052C0000068184403B030BD1846FBE70A884B88D5
:1052D0009A4209D150E8012FC2EA024240E8012374
:1052E000002BF7D1012070470020704737B550E8F8
:1052F000023F1FFAA3F5C488A54202BFBFF32F8F58
:1053000000220DE0C48925448489A54228BF2D1BB5
:10531000C3EA054540E80254002CE8D14FF00102F1
:105320008DF803200193019B9DF803200B6002F090
:10533000FF0322B14B880068184403B030BD184603
:10534000FBE70A884B889A4209D150E8022FC2EA4B
:10535000224240E80223002BF7D1012070470020B1
:10536000704710B5034653E8000F0A4643E800248F
:1053700094F0000FF7D110BD10B5034653E8000FAD
:1053800040EA010243E8002494F0000FF6D110BD7A
:1053900010B5034653E8002F42EA010043E8000439
:1053A00094F0000FF6D110BD10B5034653E8000F7E
:1053B00000EA010243E8002494F0000FF6D110BD8A
:1053C00010B5034653E8002F02EA010043E8000449
:1053D00094F0000FF6D110BD10B5034653E8002F2E
:1053E00002EB010043E8000494F0000FF6D110BD79
:1053F00010B5034653E8002FA2EB010043E8000478
:1054000094F0000FF6D110BD0121FFF7B5BF0121C7
:10541000FFF7BEBF0021FFF7C7BF0021FFF7D0BFD6
:105420002DE9F0478368D3F85433C3F340059B0755
:1054300088B0074606D50022114608B0BDE8F047FF
:1054400001F00CBE012906D91E4A022108B0BDE8B0
:10545000F04700F041BC1C4C1C4EDFF874A04FF02C
:105460006408A946361B1C23B6FBF3F6AE4204F1D2
:105470001C0402D108B0BDE8F08754F81C0C54E9B4
:105480000623017900689A1A1B1ADBB2039308FB02
:1054900003F3B3FBF2F3CDE9019334F8043C00933A
:1054A000CDE9061254F8083C11FB08F13846B1FB6F
:1054B000F2F1CDE904215246082100F00DFC01353E
:1054C000D4E700BF46130400DC0404001405040004
:1054D0005913040010B590B1D0E9012301689B1A5B
:1054E000DBB20A60013BDBB2FF2B026802D1002075
:1054F000107110BD11684C1C14600B70F2E70E2087
:10550000F7E738B504460020FFF708FC2268636817
:105510001168994213D9481E106011F8015CE368C4
:10552000218B01FB0535A36811791B1ADBB2994267
:1055300000D213710020FFF7F3FB284638BD002589
:10554000F8E738B5054600200C46FFF7E7FB2A6868
:105550001368591C1160E968641A298BB4FBF1F4D3
:105560001C70BDE838400020FFF7DABB30B18A6814
:10557000B2F8543343F02003A2F854337047436821
:1055800010B59C686068036801219B689847A36810
:1055900010B903221A7010BD0422FBE709680068E5
:1055A00009F00CBE08B109F030BE704710B50446D2
:1055B000FFF7F8FF23462044834201D1002010BDAD
:1055C00013F8012B3F2A01D02A2AF5D10120F6E752
:1055D00038B58368044600681D8DFFF7E3FFA368B4
:1055E000DA8B2844B0FBF2F302FB1300B0FA80F030
:1055F000400938BD10B584680068FFF7D3FF238DDC
:10560000E28B84F8200053FA80F3B3FBF2F102FB43
:1056100011330133A382E38C53FA80F00131B0FBE4
:10562000F2F302FB130021830130591CE0826183F5
:1056300004F1140010BD38B5836804460068DD8CA1
:10564000FFF7B0FFA368DA8B2844B0FBF2F302FB4C
:105650001300B0FA80F0400938BD00002DE9F8438E
:10566000089E1C460D46E9B9194E1A4B9B1BB2EB1E
:10567000D30F4FEAD30804D2174F07EB8207A84590
:1056800001D1002309E073683868196809F096FDB4
:10569000B146083620B9D9F804302360BDE8F88354
:1056A0000135ECE70028ECD00178436839B1314688
:1056B000104698473368002BE3D02660EEE71101CF
:1056C00003EB02125B58002BDBD02260E6E700BF41
:1056D00064030400AC0304000800002030B5036834
:1056E000D3F84C5385B00446EDB100230A2201A93A
:1056F000284602F0C8FA2368029AC3F84C23002116
:105700000A2201A809F005FD00230A2201A9284662
:1057100002F0AFFA284602F054FA2368D3F84C039B
:1057200018B9C3F8480305B030BD01A900230A2207
:1057300002F0A9FA20680023D0F84C0301930A2252
:1057400001A902F096FAEEE707B58368C9B193F8AC
:1057500022208A4212D00D4A009233228DF8042072
:1057600001F12F028DF805206D22ADF8062083F897
:1057700022106A460649006901F013FE03B05DF885
:1057800004FB044A83F82210F4E700BF1B5B313BA3
:10579000B71504000016040007B5836893F82320AA
:1057A0008A4214D045F61B32ADF8002034228DF821
:1057B000022001F12F0283F823108DF803206D22BF
:1057C000ADF80420034900696A4601F0EAFD03B020
:1057D0005DF804FBB7150400014901F0E2BD00BF0C
:1057E00081140400014A024901F0DBBDF6150400F2
:1057F000B71504002DE9F743002506460F46144669
:105800000560207840B109F032FA68B1002304F84D
:10581000013B33680B2BF4D933680022284647F844
:10582000232003B0BDE8F08333685A1C326047F888
:105830002340054694F80080B8F1000FE9D0002D10
:1058400077D1B8F1270F05D0B8F15C0F79D0B8F156
:10585000220F66D12046FFF7A5FE611C02462046B6
:1058600009F04DFA4546E5E72046FFF79BFE611C2F
:105870000246204609F043FA0025DBE7302826D10E
:1058800002234FF00008E05CA0F13001C9B2072903
:105890005FFA83F918D8013341EAC801052B5FFA92
:1058A00081F8F0D1994609F1FF3121442046019158
:1058B000FFF778FE0230A0EB09020199204609F0BB
:1058C0001EFA04F8018BB5E7B9F1020FEBD1782885
:1058D0002DD102214FF00008635CA3F13002D2B257
:1058E000092AC8B20AD842EA081303295FFA83F8E2
:1058F00002D14FF00409D6E70321EDE7A3F16102DD
:10590000052A03D8573B43EA0813EEE7A3F1410207
:10591000052A01D8373BF6E7022808D04FF00309E3
:10592000C1E7404609F0A3F900287FF472AF0134C3
:1059300080E7A84598D0B8F15C0FF8D1607885422F
:105940009CD12046FFF72EFE04F101080246414695
:10595000204609F0D4F944466CE72DE9F3410546A9
:105960000F461446002614B902B0BDE8F0816868FD
:1059700003682246D3F80C80B91901ABC047019BDC
:105980001E44E41A002BEED1AB681A78032AEAD041
:10599000D3F854239206FBD5B3F854236FF3451282
:1059A000A3F85423DFE700000A4619B10249006852
:1059B00001F0F7BC704700BF681404002DE9F04FF8
:1059C0002DED028B044683B090460E46002973D01D
:1059D0000025705D09F04BF950BB04F1100308EE8F
:1059E000103A1FFA88FB3046FFF7DCFDA368B3F8D6
:1059F0001E90401BA9EB080906EB050A48455346D3
:105A00004FF0000717D913F8010BCDE9003309F067
:105A10002EF9009B20B113F8012C0A2A34D0B94684
:105A2000A268D08B08EB070290422CD90137EAE735
:105A30000135CEE70137B84219D013F8012B0A2AF5
:105A400005EB0709F6D1206901F0A0FC3A4627468C
:105A500051462046FFF781FF57F8100FFFF7BCFEB5
:105A60001FFA88F1384609F10105FFF79DFF20690B
:105A7000711901F096FC206903B0BDEC028BBDE802
:105A8000F04FFFF7A9BE4F46206901F07FFC3A4670
:105A900051462046FFF761FF3D44705D09F0E7F88D
:105AA00040B92069FFF798FE18EE100A5946FFF733
:105AB0007BFF98E70135F0E703B0BDEC028BBDE852
:105AC000F08F00000A4619B10249006801F069BC74
:105AD000704700BF6E1404000A4619B102490068FD
:105AE00001F05FBC704700BF7414040037B5054671
:105AF000FFF780FD037B0288818801339A420446C8
:105B000001D1012915D0012905F1100005D901396C
:105B100089B20190FFF7E0FF01982388217B8B4237
:105B200009D9013B591A89B2FFF7CCFFAB680022B3
:105B30001A8503B030BDC91A013189B2FFF734FFAD
:105B4000F4E7F7B50546FFF755FD8788C688044694
:105B50002846FFF73DFD78B12869FFF73DFEB742C3
:105B600005F110000ED161882388C91A89B203B0EB
:105B7000BDE8F040FFF7A6BF2846FFF75CFD002810
:105B8000EAD1ECE7A388E1880190C91A89B2FFF74E
:105B9000A3FF2388618801988B42E6D9591A89B2FC
:105BA00003B0BDE8F040FFF7FFBE000038B5054682
:105BB000FFF720FD028843889A4204468388C28802
:105BC00001D1934214D09A4205D9D21A0B492869BF
:105BD00092B201F0E6FB238861888B4205F1100048
:105BE00007D9591A89B2FFF76DFFAB68DA8C1A85AD
:105BF00038BDC91A89B2FFF7D7FEF6E77A14040058
:105C0000F8B51E46C3685B6805469860406803683F
:105C100017461C68294A2B46A0470446002843D152
:105C2000686901F0CCFF044600283DD1A8684FF414
:105C300056722146C0E9D24409F06BFAA96820489F
:105C4000B1F854331F4A43F02003A1F85433B1F89C
:105C5000543367F38203A1F85433B1F8543343F05B
:105C60000803A1F8543301230B70174BCB61121AB0
:105C7000164B4FEAD20C21460430614516D1072A53
:105C800004D9134B1148042209F056F866B19DF867
:105C90001810E868FCF7A0FA0028A1BFEB68DB68E1
:105CA00001225A71B8BF04242046F8BD50F8317063
:105CB0003F6843F8047B0131DFE700BF6D5500000A
:105CC00064030400AC030400180050000800002026
:105CD0009D550000FFF741BE0CB473B506AB0D46F1
:105CE00053F8046B81680193D1F854335B07044681
:105CF00021D591F82230AB421DD0022222316846D4
:105D000009F0DEF929462046FFF71EFD206901AAA9
:105D1000314601F0C5FB9DF800102046FFF714FD49
:105D20009DF8011011B12046FFF736FD02B0BDE825
:105D3000704002B07047206901AA314601F0B0FB03
:105D4000F4E700008268002182F82C101185D184CC
:105D50000368024A0321FFF7BFBF00BFB715040065
:105D600070B583681E78012E04461AD14068036816
:105D700000219B689847054688B908212046FFF70F
:105D8000E3FC31462046FFF707FD2069064901F094
:105D900008FBA36802221A702046FFF7D3FF2846AB
:105DA00070BD0825FBE700BF80140400F8B5044669
:105DB0008068C68CB318B3F5C07F0F4615463ADA33
:105DC000002A38D0038DF61A03F12C0113442C332A
:105DD000B6B20144721C184408F091FFA068038D0C
:105DE0002C332A463946184408F089FFA0682C3025
:105DF000FFF7D8FBA268138DD0842C3313442046C0
:105E00000D4A0821FFF768FFA3681A8D15441D8508
:105E10002046FFF7DDFB40B12069FFF7DDFC56B1FE
:105E20002046BDE8F840FFF78CBE2046FFF703FC94
:105E30000028F1D1F3E7F8BDB71504002DE9F041D2
:105E400004468068D0F85463C28C038DC6F3000802
:105E5000D51A16F001060F46ADB23ED1B2F5BF7F9E
:105E600040D83DB103F12C012D3301442A4618449A
:105E700008F045FFA3681A8D1A4482F82C70002E92
:105E800072D1DA8C013292B2DA84134483F82C8016
:105E9000002D72D02046FFF7ADFB8288C3889A425E
:105EA00022D1A268138D2C33134408212046344A92
:105EB000FFF712FFA91B89B204F11000FFF702FEE1
:105EC000A268138D013313852046FFF781FB20B3B1
:105ED0002069BDE8F041FFF77FBCB2F5BF7FC9D9AB
:105EE000002DC7D1BDE8F081264A2549206901F07F
:105EF00058FAA268138D2C3313440821204A2046F7
:105F0000FFF7EAFE204A1E49206901F04AFA1F49BC
:105F10000122206901F045FAD2E72046FFF78BFB0A
:105F20000028DFD02046FFF765FBC2888388013A4E
:105F3000D21A92B2054604F110061AB1144920692A
:105F400001F02FFA2069FFF747FCE988AB88C91AEE
:105F5000304689B2FFF7C0FD29880139304689B241
:105F6000BDE8F041FFF720BD002D93D1DA8C01325E
:105F700092B2DA84134483F82C5006493A46C8E7B3
:105F8000B7150400FA150400FD1504006814040098
:105F90007A1404004F0C04007FB583680025CDE916
:105FA0000155D3F85023ADF80C5004460E46002995
:105FB00042D1002A3BD0FFF799FDA0683346D0F8C4
:105FC00050030A2201A901F05EFEA068029BC58C65
:105FD000C0F85033002B4ED100F5D670FFF7E2FA2F
:105FE000A36830B303F5D67103F12C0009F0C4F8AF
:105FF000A0682C30FFF7D6FAADF80C00BDF80C30D5
:10600000A268AB421385D38402D22069FFF7EAFB72
:10601000A3682D4A20462C330821FFF75DFE204659
:10602000FFF7D6FA002849D02069FFF7D5FB04B066
:1060300070BD83F82C00DBE7D3F84C139142F6D007
:10604000D3F84833002BF2D0FFF750FDA368D3F804
:10605000500338BB03F12C00FFF7A4FA85B2A06807
:10606000D0F84833C0F85033CDB100F12C0100F521
:10607000D67009F081F8A06801A9D0F85003002378
:106080000A2201F000FEA068BDF80C2000F12C01EE
:106090000A23D0F85003013201F0F5FDAEE780F895
:1060A000AC51E8E72B460A2201A901F0ECFDA368F8
:1060B000019ABDF80C50C3F85023DCE72046FFF7E7
:1060C000BAFA0028B0D1B2E7B715040038B50446D3
:1060D0008068038DC58CED1AADB2002D40D003F160
:1060E0002D012C3301442A46184408F008FEA2680A
:1060F000D38C013BD3842046FFF77CFA8288C38887
:106100009A4215D1A268138D2C3313442046154AA8
:106110000821FFF7E1FD54F8100F1249124A01F06F
:1061200040F9691E204689B2BDE83840FFF7CABC75
:106130000E4A0C49206901F034F92069FFF752FB3F
:10614000A268138D2C3313442046064A0821FFF71A
:10615000C3FD2069064A0349BDE8384001F021B972
:1061600038BD00BFB715040004160400FA1504007A
:10617000FD150400F0B5C3685B6891B004460D4698
:106180001868002203A901F0ECFE002840F08B8083
:1061900085B1039801F05EFDA268D2F84433013363
:1061A000C2F8443303F00703012B03D0012528462E
:1061B00011B0F0BD2046FFF71DFA8188012906467F
:1061C00005D9013989B204F11000FFF785FC318847
:1061D000012905D9013989B204F11000FFF772FCD9
:1061E0002069FFF7FFFA2DB1304A02212046FFF760
:1061F00073FDDCE700230822039804A901F043FDA6
:10620000069B0793059B089301238DF825309DF885
:10621000103003F00302012A25D1BDF81020049D9F
:106220000398C3F3C203C2F383168DF82430B2007F
:1062300008230AA901F027FDC5F3952523690093DA
:10624000324607AB0AA92846FCF766F8039801F026
:1062500001FDE3685B680022186803A901F081FE74
:106260000028C7D0A2E7022AF0D1BDF81250C3F32C
:10627000C203C5F389158DF824300827082D2E4652
:1062800028BF08263B46039832460AA901F0FBFCCA
:10629000AD1B236907AA31460AA83744FCF7A0F8CA
:1062A000002DEBD1D2E7002581E700BF8314040065
:1062B000436801219868FFF75DBFF7B54768019112
:1062C000BD68AB681E78042E0ED0386801A901F0B5
:1062D0004AFD044650B9019801F0B8FC032E03D1E1
:1062E00021462846FFF746FF03B0F0BDF11E18BF58
:1062F00001212846FFF73EFFE7E700002DE9F04FB8
:106300002DED028B82468068A5B0102100F55570F6
:10631000FFF73EF8DAF808301B78022B40F0928045
:1063200000230B93DAF80400036801221C690DF1C5
:106330002B010BABA0470B9B002B68D09DF92B309A
:10634000002BEFDB01F0C4FCDAF808004378012BE6
:1063500000F0A485022B00F0A885002B40F0698690
:106360009DF82B400D2C32D00A2C30D0B0F854239D
:1063700063F38D12A0F85423092C00F03B8300F244
:106380001E83002CCED0082C00F02C85204608F06F
:1063900073FC0028C6D0DAF808309DF82B10D3F82B
:1063A00054231007C2F3C00500F15E84D88CB0F509
:1063B000BF7FB7D81C8D621C92B21A851C441A4448
:1063C000013084F82C1082F82C50D884AAE7D0F839
:1063D000543313F47F5F05D0D0F85433C3F38713DD
:1063E0009C42C9D1B0F8543364F38D13A0F85433F0
:1063F000C38CC3BBC0F85033DAF81000FFF7ECF9D8
:10640000DAF8083002221A705046FFF79BFC002190
:106410005046FFF7AFFEA8B1DAF80030C04A0321BA
:106420005046FFF759FCDAF80830D3F85423120726
:1064300008D55046BA4A2C330821FFF74DFC504688
:10644000FFF77FFBDAF8100000F0A0FFDAF8080091
:106450006FF0100100F55570FEF7B2FF25B0BDECEE
:10646000028BBDE8F08F90F82C30002B40F092802A
:10647000DAF808002C30FFF795F8DAF80830002534
:1064800086B20446C3F8505336B3D3F84803002805
:1064900000F0C3802B460A2217A901F0F4FBBDF8D7
:1064A00064309E4240F0B980DAF808000A2300F513
:1064B000D671721CD0F8480301F0E5FBDAF8080049
:1064C00000F5D6712C3008F079FEDAF80830002893
:1064D00040F0A18083F8AC01DAF808004FF4C072F4
:1064E000002100F5D67008F014FEDAF80800C28C1E
:1064F00000F12C0100F5D67008F0E2FDDAF808B0E2
:106500000BF5D6794846FFF74DF8002485B22646AC
:106510006B1E9C420394C0F2CC80DAF8080000F5B0
:10652000D670FFF73FF8DAF808300130588550464A
:10653000FFF73CFB5046FFF74BF818B9DAF81000AC
:10654000FFF74AF9DAF8082017A92C320CA8FFF750
:1065500051F90C9A0346002A3FF44EAF002840F050
:10656000D880704E704DAD1BED080446A542179BB8
:1065700040F0E2806D4A009202216D4A5046FFF7DA
:10658000ABFB3DE70134B4F5803F04D1002283F832
:106590002C206DE70024DAF808302344A5B293F8E4
:1065A0002C0008F064FBDAF808300028EAD175B155
:1065B000DA8C03F12C000132121B011908F09FFB49
:1065C000DAF80820D38C5B1B9BB2D3841385DAF8EE
:1065D0000840E38C2B331C44A7B2A046A6B2BD1BD7
:1065E00098F80000ADB2013C08F041FB0028F4D15E
:1065F000DAF80820D38C03F12B01114488453FF4CD
:1066000037AF5D1BF61B154433449BB285F82C0055
:10661000D38413852CE783F8AC510826A4B204F187
:106620000B050AEB0607DAF81400294601F0DFFA39
:106630000446002837D0DAF80830D3F84803B0B958
:10664000C3E9D244CDE91700DB8CADF8643017A95B
:10665000204600230A2201F00CFBDAF80810CA8C4D
:106660000A2301322C31204601F003FB34E70023DA
:106670000A2217A901F007FBDAF808001894002392
:106680000A22D0F8480317A901F0F3FA002318935F
:10669000DAF80830D3F848231792DA8CADF8642082
:1066A000C3F84843D3E73846FFF718F8013EBAD19C
:1066B00012E719F8040008F0DAFAA0460134A4B28F
:1066C00000283FF425AF04F5D6725A442746AF425E
:1066D000BFF41EAF1146013208780592049108F00C
:1066E000C6FADDE9041220B101360137B6B2BFB2F5
:1066F000EDE7002E3FF40CAF039B0490AD1B08F1B7
:106700000100EA1A484408F0FAFA049BADB21E46AA
:10671000FEE6084A02215046FFF7DEFA70E600BFA7
:10672000B715040064030400AC030400CB14040098
:10673000C5140400B114040072681846116808F00A
:106740003DFD3746083618B10134A542BFF40EAFFF
:10675000DAF808000021102204300D9108F0D9FC6D
:106760007C68E36833B194E80F00DAF80850043528
:1067700085E80F000026D4F808B0039601243746B8
:106780000C9BA34210D924AB03EB8405944955F824
:10679000340C08F013FD88BBDAF80820B2F8543343
:1067A00043F00203A2F8543386B1DAF80800428DB0
:1067B00000F5D6712C3008F083FCDAF80820538DF0
:1067C000D38417A92C320CA8FFF714F8DAF8083094
:1067D0001B69002B00F0F180039A039817A901EBC5
:1067E00082020C99091A50469847DAF80830B3F833
:1067F00054236FF34102A3F8542301E6794955F875
:10680000340C08F0DBFC0028C6D055F8340CFEF739
:10681000CDFE002800F0958055F8348C00250E95AB
:106820000495049B06930133049313AB0093069ADB
:106830000EAB21465846FEF711FF0E9BF3B11968C7
:1068400000224046FEF7F5FC002875D10E9B1B6820
:10685000184608EE103AFEF7A5FEDAF8082083B2D3
:1068600007930593538D013313FA80F0B0F5C07F81
:106870003CD95D4A04215046FFF72EFA002D93D0F3
:10688000DAF80800414600F5D67008F0F9FB8146B9
:106890004046FEF787FE1FFA80F8B9F1000F20D0BE
:1068A000DAF8083003F5D673994509D919F8013C8F
:1068B000202B02BF08F101081FFA88F809F1FF39FF
:1068C0004846FEF76FFEDAF80820538D0130A3EB3F
:1068D0000803538509EB0801A0EB0802484608F0BD
:1068E0000EFA2E440134B846474649E7414602F5C0
:1068F000D67008F0C5FB81460028BFD0FEF752FED7
:10690000059B80B203F1010C421C494609EB0C00C7
:1069100008F0F5F9059A18EE101A484608F0D0FB71
:10692000059B0799202209F80320DAF80820538DE7
:106930000133194451850135069B01337FF471AF52
:106940009CE70FAB07F1010800933A460DAB2146D7
:106950005846FEF783FEB8F1000F3FF425AF0D9BBC
:10696000002B3FF421AF196855F8340C08F026FCD1
:106970000028B9D10D9DEB68CBB186B15046FFF729
:1069800015F95046FEF724FE18B9DAF81000FEF7A4
:1069900023FF164A02215046FFF79EF925E795E8A6
:1069A0000F00DAF808700394043787E80F00D5F871
:1069B00008B001344FF0000896E70D4AEAE71B2CB7
:1069C0000BD07F2C7FF4E2ACD0F854331C077FF55A
:1069D000A9AC5046FFF77AFBA4E401234370A1E47D
:1069E000DF140400E2140400E91404003715040065
:1069F00066150400D0F854331F077FF593ACC58C9F
:106A0000C5F5BF750135ADB2002D3FF48BAC00F17B
:106A10002C01028D00F5D67008F052FBDAF8083030
:106A20001A8D1344002493F82B0083F8AC4108F02E
:106A30001EF9DAF808200590031B18BF0123C2F8DD
:106A4000504317A902F5D6720CA80693FEF7D2FEA2
:106A50001798FEF7A7FDCDE90D4487B204942646AA
:106A60000394A346A0460C9B2BB1069A013B13440A
:106A7000B34200F28680059B002B35D124AB03EB9B
:106A8000860353F8340CFEF78DFD87B224AB03EB7D
:106A900086034FF00009099309F1010307930FAB37
:106AA00000934A460DAB31462046FEF7D7FD0D9BBD
:106AB000002B4CD01968099B3A4653F8340C08F067
:106AC00099FA089098B9039B013303930D9B1868BA
:106AD0000E9B7BB9FEF766FD83B2D81B85420493FB
